:100000000C9462000C948A000C948A000C948A0070
:100010000C948A000C948A000C948A000C948A0038
:100020000C948A000C948A000C948A000C948A0028
:100030000C948A000C948A000C948A000C948A0018
:100040000C9443030C948A000C948A000C948A004C
:100050000C948A000C948A000C948A000C948A00F8
:100060000C948A000C948A000000000024002700F1
:100070002A0000000000250028002B0000000000DE
:1000800023002600290004040404040404040202DA
:100090000202020203030303030301020408102007
:1000A0004080010204081020010204081020000012
:1000B0000008000201000003040700000000000027
:1000C0000000480411241FBECFEFD8E0DEBFCDBF33
:1000D00011E0A0E0B1E0ECE4F9E002C005900D927F
:1000E000A230B107D9F721E0A2E0B1E001C01D9232
:1000F000AC32B207E1F710E0C2E6D0E004C02197CD
:10010000FE010E949E04C136D107C9F70E948D03EB
:100110000C94A4040C940000833081F028F4813006
:1001200099F08230A1F008958730A9F08830B9F0B5
:100130008430D1F4809180008F7D03C08091800055
:100140008F7780938000089584B58F7702C084B53F
:100150008F7D84BD08958091B0008F7703C080911A
:10016000B0008F7D8093B0000895CF93DF93282F48
:1001700030E0F901E255FF4F8491F901E656FF4F57
:10018000D491F901EA57FF4FC491CC2391F081112A
:100190000E948C00EC2FF0E0EE0FFF1FE458FF4FA1
:1001A000A591B491EC91ED2381E090E021F480E001
:1001B00002C080E090E0DF91CF9108951F93CF932C
:1001C000DF93282F30E0F901E255FF4F8491F901C8
:1001D000E656FF4FD491F901EA57FF4FC491CC2363
:1001E000C9F0162F81110E948C00EC2FF0E0EE0F69
:1001F000FF1FEE58FF4FA591B4918FB7F8941111DE
:1002000005C09C91ED2FE095E92302C0EC91ED2B08
:10021000EC938FBFDF91CF911F910895CF93DF9320
:1002200090E0FC01E656FF4F2491FC01EA57FF4F96
:100230008491882361F190E0880F991FFC01E859AF
:10024000FF4FC591D491FC01EE58FF4FA591B49199
:10025000611109C09FB7F894888120958223888313
:10026000EC912E230BC0623061F49FB7F894388173
:10027000822F809583238883EC912E2B2C939FBF14
:1002800006C08FB7F894E8812E2B28838FBFDF91AB
:10029000CF9108953FB7F89480912801909129015A
:1002A000A0912A01B0912B0126B5A89B05C02F3F34
:1002B00019F00196A11DB11D3FBFBA2FA92F982F8C
:1002C0008827820F911DA11DB11DBC01CD0142E007
:1002D000660F771F881F991F4A95D1F708958F924F
:1002E0009F92AF92BF92CF92DF92EF92FF926B01FB
:1002F0007C010E944A014B015C01C114D104E1045C
:10030000F104F1F00E944A01DC01CB01881999093E
:10031000AA09BB09883E9340A105B10570F321E00D
:10032000C21AD108E108F10888EE880E83E0981E11
:10033000A11CB11CC114D104E104F10419F7DDCFF3
:10034000FF90EF90DF90CF90BF90AF909F908F90F5
:1003500008952FB7F8946091240170912501809140
:100360002601909127012FBF089561E085E00E944A
:10037000DE0060E083E00E94DE0060E082E00E9438
:10038000DE0061E089E00E94DE0060E08AE00E9419
:10039000DE0060E088E00C94DE0081E090E0909365
:1003A000010180930001089560E089E00E94DE0071
:1003B00061E08AE00E94DE0060E088E00C94DE00EC
:1003C000089560E085E00E94DE0061E088E00E9420
:1003D000DE0060E08AE00E94DE0060E089E00C94CC
:1003E000DE00089560E083E00E94DE0060E082E0CD
:1003F0000E94DE0061E087E00E94DE0061E089E0AB
:100400000E94DE0061E08AE00E94DE0061E088E098
:100410000E94DE0064EF71E080E090E00E946F01D6
:1004200060E087E00E94DE0060E089E00E94DE007C
:1004300060E08AE00E94DE0060E088E00E94DE006A
:1004400064EF71E080E090E00E946F0184E00E9420
:10045000B500019781F484E191E090931E018093AF
:100460001D010E94A90160931F01709320018093D8
:10047000210190932201089586E00E94B500019722
:1004800081F482E091E090931E0180931D010E940F
:10049000A90160931F017093200180932101909323
:1004A000220184E00E94B500019781F484E191E08B
:1004B00090931E0180931D010E94A90160931F016A
:1004C00070932001809321019093220160E088E0E5
:1004D0000E94DE006CE271E080E090E00E946F011B
:1004E00061E088E00E94DE006CE271E080E090E074
:1004F0000C946F01CF92DF92EF92FF92CF93DF9334
:10050000809100019091010184309105CCF060E070
:1005100083E00E94DE0060E082E00E94DE0082E074
:1005200091E090931E0180931D010E94A9016093A8
:100530001F0170932001809321019093220186C0B6
:100540000196909301018093000161E082E00E9496
:10055000DE0061E083E00E94DE000E94A9016B01E1
:100560007C0128EBC20E2BE0D21EE11CF11CC4E181
:10057000D1E086E00E94B500892BD9F00E94A90144
:100580006C157D058E059F05A0F484E00E94B500E2
:10059000019779F7D0931E01C0931D010E94A90114
:1005A00060931F0170932001809321019093220199
:1005B000E0CF86E00E94B500892BA1F460E082E0E4
:1005C0000E94DE0088E091E090931E0180931D015F
:1005D0000E94A90160931F01709320018093210163
:1005E0009093220186E00E94B500019779F50E9460
:1005F000A9016B017C0120EAC20E2FE0D21EE11C92
:10060000F11C60E083E00E94DE0060E082E00E9476
:10061000DE00C4E1D1E00E94A9016C157D058E05C4
:100620009F05A0F484E00E94B5000197A1F7D09344
:100630001E01C0931D010E94A90160931F017093C8
:1006400020018093210190932201E5CFDF91CF918A
:10065000FF90EF90DF90CF90089584E00E94B50066
:10066000892B81F48EE091E090931E0180931D010F
:100670000E94A90160931F017093200180932101C2
:100680009093220108951F920F920FB60F9211249A
:100690002F933F938F939F93AF93BF9380912401A8
:1006A00090912501A0912601B0912701309123015D
:1006B00023E0230F2D3720F40196A11DB11D05C0A5
:1006C00026E8230F0296A11DB11D209323018093DC
:1006D000240190932501A0932601B09327018091D6
:1006E000280190912901A0912A01B0912B01019636
:1006F000A11DB11D8093280190932901A0932A0187
:10070000B0932B01BF91AF919F918F913F912F910A
:100710000F900FBE0F901F901895789484B582604B
:1007200084BD84B5816084BD85B5826085BD85B595
:10073000816085BD80916E00816080936E00109213
:10074000810080918100826080938100809181008E
:10075000816080938100809180008160809380001F
:100760008091B10084608093B1008091B00081607D
:100770008093B00080917A00846080937A008091A9
:100780007A00826080937A0080917A008160809301
:100790007A0080917A00806880937A001092C1007C
:1007A00061E083E00E940E0160E083E00E94DE00D1
:1007B00061E082E00E940E0160E082E00E94DE00C3
:1007C00062E084E00E940E0161E085E00E940E017B
:1007D00061E089E00E940E0161E08AE00E940E0162
:1007E00061E088E00E940E0162E086E00E940E0156
:1007F00061E087E00E940E0160E087E00E94DE0079
:1008000000E010E080911A01E0911B01F0911C01C1
:10081000882349F00190F081E02D309709F0099587
:1008200010921A012EC0C0911D01D0911E01EC172B
:10083000FD07E9F00480F581E02D309709F0099576
:10084000D0931E01C0931D01D0931C01C0931B01C6
:10085000E881F981309709F009950E94A901609318
:100860001F01709320018093210190932201E09158
:100870001B01F0911C010280F381E02D309709F0FB
:1008800009950115110509F4BDCF0E940000BACFEA
:10089000E4E1F1E085EB91E0918380838DE293E0E8
:1008A000938382838DEC91E095838483AEE0B1E005
:1008B00084ED91E011969C938E938AE792E01396D3
:1008C0009C938E93129780EE91E015969C938E9355
:1008D0001497A8E0B1E081EE91E011969C938E937D
:1008E0008CE392E013969C938E93129781EF91E0A4
:1008F00015969C938E931497A2E0B1E011961C92EA
:100900001E9282EF91E013969C938E931297159608
:100910001C921E921497AAE1B1E081E08C93149688
:10092000FC93EE9313971296FC93EE931197159602
:100930001D921D921D921C9218970895EE0FFF1F95
:0C0940000590F491E02D0994F894FFCF8D
:02094C000100A8
:00000001FF
